:020000040000FA
:100000000206B2C2AFF508614AFFFFC2AFF5086150
:100010005CFFFFC2AFF508616EFFFFC2AFF508617C
:1000200080FFFFC2AFF5086192FFFFC2AFF5086124
:10003000A4FFFFC2AFF50861B6FFFFC2AFF50861CC
:10004000C8FFFFC2AFF50861DAFFFFC2AFF5086174
:10005000ECFFFFC2AFF50861FEFFFFC2AFF50881FC
:1000600010FFFFC2AFF5088122FFFFC2AFF5088184
:1000700034FFFFC2AFF5088146FFFFC2AFF508812C
:1000800058FFFFC2AFF508816AFFFFC2AFF50881D4
:100090007CFFFFFF758701002274F712057FE9FEE0
:1000A000750A00750B08780A1206837C807D017A38
:1000B000007B001204927402120640900186E0F563
:1000C0000AA3E0F50B7409780A120694E50A2EF5E6
:1000D0000A74016E7006743E250AF50A53B4F3756E
:1000E000BC0075BC007CFC7D077A047B00EEF91235
:1000F00002BC74012EFFC3950A501B74086F700276
:100100007F467C007D087A007B00EFF91202BC0F6D
:10011000EFC3950A40E5E5BDF9E5BCFAE9FB7F02CE
:100120000205E574F612057F890CEAFEEBFF53BE6B
:10013000FBE59DA2E650FAE5C654804449F5C6E5C4
:100140009E547F644970F853C67FE59EA2E740FA4B
:1001500053C680E59E547F70FA43BE04906270746B
:1001600008F01200998E828F83E0F8A3E0F9EA6824
:100170007002EB6970498E828F83A3A3E8F0A3E934
:10018000F08E828F8374FFF0A3F07409F5D575D4D7
:1001900080750A01750B00780A120683EEFCEFFDEC
:1001A000850C0A7409780A120670FAAB0B1205194D
:1001B0007402120640C2AF75C9AB75C95B80FE7F81
:1001C000030205E574FC12065A750A04750B0078E3
:1001D0000A12068374021206CEAC82AD837A007BCB
:1001E0000079081204927402120640851A82E0F423
:1001F0007003A3E0F4603C851A82851B83E0F8A3BA
:10020000E0F9E849602D74021206CEE0687003A39D
:10021000E0697010750901024030C2AF75C9AB7555
:10022000C95B80FE851A82851B83AA82AB8379080D
:10023000120123780A12068374021206CEAC82AD34
:10024000837A007B007901120492740212064085C1
:100250001A82E0F47003A3E0F46051851A82851BD2
:1002600083E0F8A3E0F9E849604274021206CEE0A8
:10027000F8A3E0F9851A82851B83E0687003A3E088
:10028000697010750900020830C2AF75C9AB75C935
:100290005B80FE74FF68700374FF69700F851A82BB
:1002A000851B83AA82AB83790112012343BE03120B
:1002B0000094C2AF75C9AB75C95B80FE74F71205B7
:1002C0007FE9FEE5C7FF740F5EF50A750B00740B3E
:1002D000780A120670EA2400F8EB350BF9E82400DE
:1002E000E93480F9A2AFE433F50AC2AFEEC4540F8B
:1002F000FAE5C754F84AF5C7E9900980F0E8A3F099
:10030000A37470F0A374BDF0EC900985F0EDFC903F
:100310000984E054E04CF09009867420F0A3744204
:10032000F07409F5D575D48075D601000000000081
:1003300000000000000075D701E5D7A2E040FA8F69
:10034000C7E50AA2E092AF02011EE5096007E508D1
:10035000D2AF024033E508D2AF020833E5096007A7
:10036000E508D2AF02403BE508D2AF02083BE50901
:100370006007E508D2AF024043E508D2AF02084368
:10038000E5096007E508D2AF02404BE508D2AF02AD
:10039000084BE5096007E508D2AF024053E508D2F3
:1003A000AF020853E5096007E508D2AF02405BE5FC
:1003B00008D2AF02085BE5096007E508D2AF02404A
:1003C00063E508D2AF020863E5096007E508D2AF2C
:1003D00002406BE508D2AF02086BE5096007E5084B
:1003E000D2AF024073E508D2AF020873E509600797
:1003F000E508D2AF02407BE508D2AF02087BE509F1
:100400006007E508D2AF024083E508D2AF02088357
:10041000E5096007E508D2AF02408BE508D2AF02DC
:10042000088BE5096007E508D2AF024093E508D2E2
:10043000AF020893E5096007E508D2AF02409BE5EB
:1004400008D2AF02089BE5096007E508D2AF024079
:10045000A3E508D2AF0208A3E5096007E508D2AF1B
:100460000240ABE508D2AF0208ABE5096007E5083A
:10047000D2AF0240B3E508D2AF0208B3E509600786
:10048000E508D2AF0240BBE508D2AF0208BB0002CC
:10049000048E74F512057F890A740F550AF50C75E0
:1004A0000D00740B780C120670EA2400F8EB34800F
:1004B000F9E82400E9350DF9E5C7F50BA2AFE433FF
:1004C000F50CC2AFE50AC4540FFAE5C754F84AF573
:1004D000C7740B1206CEE0FEA3E0FFEE4F602CEED9
:1004E000FAEFFB88828983E08C828D83F088828991
:1004F00083A3A882A9838C828D83A3AC82AD83EA77
:1005000024FF1AEB34FFFBEA4B70D8850BC7E50CD0
:10051000A2E092AF7F040205E574F712057FED902B
:100520000980F0ECA3F0A37462F0A37473F0A3E06D
:10053000541FF074091206CEE0F50AA3E0F50BE5AE
:100540000A333354FC900985F07406780A12069435
:10055000E50A900984F09009867412F0A37442F0C1
:1005600053D1FE75D601EA906271F0EBA3F0906270
:1005700070E0D2E1F0E0A2E740FB7F020205E52552
:100580001AC582C0E0E51B34FFC583C0E0E51AC38D
:10059000958224F910AF0885831B85821A8008850F
:1005A000831B85821AD2AFCEF0A3E520F0A3780A90
:1005B000E608F0A3DEFAEFF0A3E58124FBF8E608F5
:1005C000F0A3E608F0A30808E608F0A3E608F0A305
:1005D00015811581D0E0FED0E0F815811581E8C0C5
:1005E000E0EEC0E022851B83851A82E0A3FEE0A333
:1005F000F520780AE0A3F608DFFAE0A3FFE0A3C045
:10060000E0E0A3C0E0E0A3C0E0E0A3C0E010AF08DA
:1006100085821A85831B800885821A85831BD2AF49
:10062000D083D08222251AF58210AF08F51A400235
:10063000151B8008F51A4002151BD2AF851B8322BB
:10064000C0D0251A10AF08F51A5002051B8008F516
:100650001A5002051BD2AFD0D022251A10AF08F5D0
:100660001A4002151B8008F51A4002151BD2AF2252
:10067000700422600D18C6C333C608C633C6D5E061
:10068000F4182274028000C0E0F404120625D0E0C1
:100690001206C122600C08C6C313C618C613C6D5FD
:1006A000E0F4221206DDB900030206AC1201C41206
:1006B00006D875D00075813F751A80751B0102063A
:1006C000A3CAC0E0E6F0A308DAFAD0E0FA22251ABD
:1006D000F582E4351BF5832200000080FB790122BE
:1006E000FFFFFFFFFFFFFFFFFFFFFFFFFFFFFFFF1A
:1006F000FFFFFFFFFFFFFFFFFFFFFFFFFFFFFFFF0A
:10070000FFFFFFFFFFFFFFFFFFFFFFFFFFFFFFFFF9
:10071000FFFFFFFFFFFFFFFFFFFFFFFFFFFFFFFFE9
:10072000FFFFFFFFFFFFFFFFFFFFFFFFFFFFFFFFD9
:10073000FFFFFFFFFFFFFFFFFFFFFFFFFFFFFFFFC9
:10074000FFFFFFFFFFFFFFFFFFFFFFFFFFFFFFFFB9
:10075000FFFFFFFFFFFFFFFFFFFFFFFFFFFFFFFFA9
:10076000FFFFFFFFFFFFFFFFFFFFFFFFFFFFFFFF99
:10077000FFFFFFFFFFFFFFFFFFFFFFFFFFFFFFFF89
:10078000FFFFFFFFFFFFFFFFFFFFFFFFFFFFFFFF79
:10079000FFFFFFFFFFFFFFFFFFFFFFFFFFFFFFFF69
:1007A000FFFFFFFFFFFFFFFFFFFFFFFFFFFFFFFF59
:1007B000FFFFFFFFFFFFFFFFFFFFFFFFFFFFFFFF49
:1007C000FFFFFFFFFFFFFFFFFFFFFFFFFFFFFFFF39
:1007D000FFFFFFFFFFFFFFFFFFFFFFFFFFFFFFFF29
:1007E000FFFFFFFFFFFFFFFFFFFFFFFFFFFFFFFF19
:1007F000FFFFFFFFFFFFFFFFFFFFFFFFFFFFFFFF09
:10080000CA6FFFFF0A00007C41414141FFFFFFFF2B
:10081000FFFFFFFFFFFFFFFFFFFFFFFFFFFFFFFFE8
:10082000000102030405060708090A0BFFFFFFFF8A
:10083000021013021E4FFFFFFFFFFFFFFFFFFFFF2E
:10084000FFFFFFFFFFFFFFFFFFFFFFFFFFFFFFFFB8
:10085000FFFFFFFFFFFFFFFFFFFFFF0225F4FFFF8A
:10086000FFFFFF0225D0FFFFFFFFFFFFFFFFFFFF9E
:10087000FFFFFFFFFFFFFFFFFFFFFFFFFFFFFFFF88
:10088000FFFFFF021EC2FFFFFFFFFFFFFFFFFFFF93
:10089000FFFFFFFFFFFFFFFFFFFFFF022583FFFFBB
:1008A000FFFFFFFFFFFFFFFFFFFFFF0225A9FFFF85
:1008B000FFFFFF021CBB01FF0000B400002800285E
:1008C00000283075A000A000A000A00000080008CB
:1008D000E001F000100010001000100010001000E7
:1008E00050005000500010001000D0070000000021
:1008F00000000F0001000500307507001000010026
:1009000081FF00000000FF162834281C28FF020287
:100910000208025000A0000000E803023B8401002E
:10092000001A84023784010000600A022D8401004D
:1009300000B202023784010000610A02298401002A
:1009400000C802023784010000620A022784010005
:1009500000CA02023784010000630A0233840800DF
:1009600000CB02023784010000640A0241840100C6
:1009700000650AFF0100FF20023B84010000FF83A5
:10098000023784010000C90A02438400000000000D
:10099000022F840300001803EC2DEC2DEC2DEC2D20
:1009A000EC2DEC2DEC2DEC2DEC2DEC2DEC2DEC2D7F
:1009B000EC2D803098307A30FFFF0A0953656E7352
:1009C0006F72546167051250002003020A00020191
:1009D00005544920424C452053656E736F72205474
:1009E000616700D007E803E803E803E803E8039041
:1009F00032000096329C32A232AE32A832B432BA01
:100A000032C032C63212416363656C2E2044617479
:100A100061000A416363656C2E20436F6E662E0091
:100A20000A0A416363656C2E20506572696F640029
:100A3000023B84010000F683023784010000570B5B
:100A400010D5810100007207022F84030000750792
:100A5000023184010000580B023784010000640B4E
:100A600010E5810300007B07023184010000650B63
:100A7000023784010000720B10F581030000730B34
:100A8000023184010000740B124261726F6D2E20DE
:100A900044617461000A4261726F6D2E20436F6E73
:100AA000662E00024261726F6D2E2043616C696296
:100AB000722E000A0A4261726F6D2E2050657269B3
:100AC0006F6400023B840100000E84023784010041
:100AD00000DA0B1035820100007E07022F8403002C
:100AE000008207023184010000DB0B023784010021
:100AF00000E70B10458203000088070231840100E3
:100B000000E80B023784010000050C106582030029
:100B100000060C023184010000070C02378401003A
:100B200000F50B1055820100008907022F84030095
:100B3000009907023184010000F60B12436F6E6EBC
:100B40002E20506172616D730008436F6E6E2E200F
:100B5000506172616D73205265710008446973635E
:100B60006F6E6E6563742052657100023B840100F4
:100B70000014840237840100008D0C10A58201004E
:100B800000A107022F84030000A70702318401009F
:100B9000008E0C0237840100009B0C10B58202000D
:100BA00000AD070231840100009C0C023784010073
:100BB00000AD0C10C582020000B5070231840100AF
:100BC00000AE0C020202020202020202010D00004B
:100BD000001001023B84010000FC83023784010005
:100BE00000150D022A83010000B6070237840100B8
:100BF00000160D0245840100008E83023784010037
:100C000000170D021F840100009D8302378401003C
:100C100000190D022184010000A180023784010027
:100C2000001A0D022384010000938302378401001F
:100C300000180D022B840100009883023784010004
:100C4000001B0D024984010000B3800237840100BB
:100C5000001C0D0235840100000583023784010069
:100C6000001D0D0225840100001E0D01E803053F53
:100C7000100A124779726F2044617461000A477943
:100C8000726F20436F6E662E000A0A4779726F20DA
:100C9000506572696F6400023B84010000F98302B1
:100CA0003784010000C40D1055810100007A08024C
:100CB0002F840300008008023184010000C50D026A
:100CC0003784010000CF0D10E58003000086080284
:100CD0003184010000D00D023784010000DB0D10CB
:100CE0001581030000DC0D023184010000DD0D03DD
:100CF00080000080700061801248756D69642E204C
:100D000044617461000A48756D69642E20436F6EFA
:100D1000662E000A0A48756D69642E205065726956
:100D20006F6400023B8401000011840237840100DB
:100D3000004A0E1065810100001109022F84030092
:100D40000015090231840100004B0E0237840100B6
:100D500000570E1095810300001B09023184010029
:100D600000580E023784010000650E101582030042
:100D700000660E023184010000670E1254656D702A
:100D80002E2044617461000A54656D702E20436FFB
:100D90006E662E000A1E54656D702E2050657269B5
:100DA0006F6400023B840100001784023784010055
:100DB00000CD0E10D5820100001E09022F84030011
:100DC000002209023184010000CE0E0237840100A6
:100DD00000D90E10E58203000028090231840100C9
:100DE00000DA0E023784010000E60E10F5820300DF
:100DF00000E70E023184010000E80E124D61676EBB
:100E00002E2044617461000A4D61676E2E20436F8D
:100E10006E662E000A0A4D61676E2E20506572695B
:100E20006F6400023B840100000B840237840100E0
:100E3000004D0F1005820100002B09022F840300D2
:100E40000031090231840100004E0F023784010095
:100E500000590F10B58103000037090231840100E9
:100E6000005A0F023784010000660F10A5810300AD
:100E700000670F023184010000680F1C023B8401EF
:100E800000000884023784010000CD0F105080025A
:100E900000003809022F840300003A09023184015E
:100EA00000001383023784010000CD0F1060800220
:100EB00000003909022F8403000040090231840137
:100EC00000002083FFFFFF000130750302010600D0
:100ED0000000000000000000000000000000000012
:100EE0000000000000000000000000FFFF0600807E
:100EF0000CE803104B6579205072657373205374AE
:100F000061746500023B84010000028402378401A1
:100F100000004510023F84000000F709022F8403FF
:100F20000000F80902318401000046100254657384
:100F3000742044617461000A5465737420436F6EB9
:100F400066696700023B8401000005840237840162
:100F500000007E1010F580030000000A02318401B9
:100F600000007F10023784010000891010358103D2
:100F70000000080A0231840100008A10E5C754F815
:100F80004405F5C779012200000080FB120F7CB9EF
:100F90000003020FFDE479217808B800028004F70D
:100FA00009D8FCE479297802B800028004F709D84E
:100FB000FCE4900280788A79088002F0A3D8FCD9FA
:100FC000FA781C9008B67A01BA00028007E493A36D
:100FD000F608DAF9900A09AA82AB839008B778C6B6
:100FE00079078015E493A3AC82AD838A828B83F06A
:100FF000A3AA82AB838C828D83D8E9D9E775824D11
:101000007583E0740712102575828775830F74004D
:1010100012102575D00075813F751A80751B0275F9
:101020009F00020F8CC09FF59FE473D09F22D08356
:10103000D082C09FE493C0E0740193C0E074029337
:10104000F59F22E066701008A3E066700A08A3E02E
:1010500066700408A3E06622C3E7960809E79608CD
:1010600009E7960809E79622C3E09608A3E09608E8
:10107000A3E09608A3E09622C00AC3E096F50A080A
:10108000A3E096420A08A3E096420A08A3E0964528
:101090000A7001D3D00A22080808EAC0E0EBC0E0D9
:1010A00086F0E7A4FA180986F0E7A42AFA18098658
:1010B000F0E7A42AFA180986F0E7A42AFA1986F0BC
:1010C000E7A4FBE5F02AFA190886F0E7A42BFBE574
:1010D000F03AFA190886F0E7A42BFBE5F03AFA1883
:1010E000180986F0E7A4C5F02BFBE43AFA1908E7E3
:1010F000C5F0C6A426F6E5F03BFBE43AFA1886F004
:10110000E7A4F6E5F00826F6E43B08F6E43A08F62C
:10111000D0E0FBD0E0FA22E4CFC0E0E4CEC0E0E4CF
:10112000CDC0E0E4CCC0E075F020C3E633F608E6BD
:1011300033F608E633F608E633F6181818EC33FCF5
:10114000ED33FDEE33FEEF33FFC3EC9709ED970966
:10115000EE9709EF97191919400FFFEC97FC09ED6D
:1011600097FD09EE97FE191906D5F0BEECF709EDCB
:10117000F709EEF709EFF7191919D0E0FCD0E0FDF7
:10118000D0E0FED0E0FF226016080808C6C313C6F0
:1011900018C613C618C613C618C613C6D5E0EA2269
:1011A0007009080808226016181818C6C333C60844
:1011B000C633C608C633C608C633C6D5E0EA22E63B
:1011C00027F60809E637F60809E637F60809E6378C
:1011D000F622E026F608A3E036F608A3E036F60885
:1011E000A3E036F622E026F008A3E036F008A3E0FC
:1011F00036F008A3E036F022C3E697F60809E69732
:10120000F60809E697F60809E697F622C3E096F095
:1012100008A3E096F008A3E096F008A3E096F02279
:10122000E657F60809E657F60809E657F60809E60C
:1012300057F622E056F608A3E056F608A3E056F665
:1012400008A3E056F622E056F008A3E056F008A303
:10125000E056F008A3E056F022E0F608A3E0F60816
:10126000A3E0F608A3E0F622E6F008A3E6F008A360
:10127000E6F008A3E6F022E0FAA3E0FBA3E0FCA37B
:10128000E0FD22EAF0A3EBF0A3ECF0A3EDF022CA1C
:10129000C0E0E6F0A308DAFAD0E0FA22CAC0E0E043
:1012A000A3C582CCC582C583CDC583F0A3C582CC3E
:1012B000C582C583CDC583DAE6D0E0CA22C3E498EF
:1012C000F8E499F91212FE8026C3E49AFAE49BFB33
:1012D000E920E7E91212FEE498F8E499F922C3E460
:1012E00098F8E499F91212FEE498F8E499F9C3E445
:1012F0009AFAE49BFB22EB20E7CFE920E7E0B90074
:1013000010BB0008E88AF084F8AAF022E4FBC8FACF
:1013100022EB70227B10C833C8C933C9335007C3CE
:101320009AC3DBF280069A50012ADBEAC833F4C87C
:10133000C933F4C9FA2275F008E4C833C8C933C9FF
:1013400033C99AC99B5004C92AC93BD5F0ECFBC8E4
:1013500033F4C8E4C9FA22600D08C6A2E713C61820
:10136000C613C6D5E0F322600C08C6C313C618C660
:1013700013C6D5E0F422700422600D18C6C333C62C
:1013800008C633C6D5E0F41822251A10AF08F51A9E
:101390004002151B8008F51A4002151BD2AF22C06F
:1013A000D0251A10AF08F51A5002051B8008F51A4F
:1013B0005002051BD2AFD0D022251AF58210AF08FB
:1013C000F51A4002151B8008F51A4002151BD2AF12
:1013D000851B8322251AF582E4351BF58322E473ED
:1013E000251AC582C0E0E51B34FFC583C0E0E51ABD
:1013F000C3958224F810AF0885831B85821A800864
:1014000085831B85821AD2AFCEF0A3E520F0A378A6
:101410000AE608F0A3DEFAEFF0A3E58124FAF8E685
:1014200008F0A3E608F0A3E608F0A30808E608F031
:10143000A3E608F0A315811581D0E0FED0E0F815F1
:101440008115811581E8C0E0EEC0E022251AC58231
:10145000C0E0E51B34FFC583C0E0E51AC3958224D4
:10146000F910AF0885831B85821A800885831B8548
:10147000821AD2AFCEF0A3E520F0A3780AE608F0F6
:10148000A3DEFAEFF0A3E58124FBF8E608F0A3E67B
:1014900008F0A30808E608F0A3E608F0A3158115F4
:1014A00081D0E0FED0E0F815811581E8C0E0EEC003
:1014B000E022851B83851A82E0A3FEE0A3F5207855
:1014C0000AE0A3F608DFFAE0A3FFE0A3C0E0E0A390
:1014D000C0E0E0A3C0E0E0A3C0E0E0A3C0E010AF44
:1014E0000885821A85831B800885821A85831BD212
:1014F000AFD083D08202102B851B83851A82E0A394
:10150000FEE0A3F520780AE0A3F608DFFAE0A3FFE7
:10151000E0A3C0E0E0A3C0E0E0A3C0E0E0A3C0E03F
:1015200010AF0885821A85831B800885821A8583FF
:101530001BD2AFD083D08222C0D0251AC582C0E092
:10154000E51B34FFC583C0E0E51AC3958224F31080
:10155000AF0885831B85821A800885831B85821AC4
:10156000D2AFC8F0A3E9F0A3EAF0A3EBF0A3790AA5
:10157000E709F0A3D8FAECF0A3EDF0A3EEF0A3EFA7
:10158000F0A3D0E0F0A3D0E0F0A3D0E0F0A3E520FA
:10159000F0A3E5F0F0A322851B83851A82E0C0E06A
:1015A000A3E0F9A3E0FAA3E0FBA3780AE0F608A31E
:1015B000DFFAE0FCA3E0FDA3E0FEA3E0FFA3E0C0B0
:1015C000E0A3E0C0E0A3E0F5D0A3E0F520A3E0A312
:1015D000F5F010AF0885831B85821A800885831B70
:1015E00085821AD2AFD082D083D0E0F8D0E03274B6
:1015F000048006740280027401C0E0F4041213B97E
:10160000D0E012128F227404800474028000CCC0D7
:10161000E0EDC0E0E51AC39CCCAD1B50011D10AF3E
:10162000068C1A8D1B80068C1A8D1BD2AF12129C51
:10163000D0E0FDD0E0FC22D083D082E9C0E0E4938A
:10164000A3C386F0C5F095F0F908E493A386F0C52E
:10165000F095F0700BE493A3C3994005E904800270
:10166000A3E475F002A42582F582E5F03583F583C5
:10167000D0E0F9E493A3C0E0E493C0E022D083D0AB
:1016800082ECC0E0EDC0E0E493A3FCE493A3FDEDA5
:101690004C600D1216C9EC24FFFCED34FFFD80EF09
:1016A000E493A3FCE493A3FDED4C600D121708EC4A
:1016B00024FFFCED34FFFD80EFD0E0FDD0E0FCE442
:1016C00093A3C0E0E493C0E022C0E0C3E493960893
:1016D0007401939618400FE49366700808740193A0
:1016E000661870007019A3A3C3E49396087401935D
:1016F0009618A3A3400DD0E0D0E0D0E00216B9A325
:10170000A3A3A3A3A3D0E022C0E0C0F088F0E49399
:101710006670080874019366187000A8F0A3A3709F
:101720000BD0F0D0E0D0E0D0E00216B9A3A3D0F007
:10173000D0E022FF74F512144CEAFEEBFFEE2434E5
:10174000F8EF3400F9880A890BEE2435F582EF347E
:1017500000F583E0F8EE2437F582EF3400F583E0FE
:10176000F50CEC850CF0A4FCAAF0850CF0EDA42A95
:10177000FDE82CF8E43DF97A257B001212FEEA859B
:101780000A82850B83F0F8740758F97401B90002D6
:101790008004C333D9FCFAE8131313541FF8EE285E
:1017A000F8EF3400F9E8245DF582E93400F583E0D0
:1017B0005A6008EE2434F582EF802CEE2434F58252
:1017C000EF3400F583E0C0E0EE2436F582EF34001C
:1017D000F583E0F5F0D0E084A8F0EE28F8EF3400CF
:1017E000F9E82438F582E93400F583E0F97F040252
:1017F00014F874F512144CEAFEEBFFEE2434F58273
:10180000EF3400F583E0C0E0EE2435F582EF3400DC
:10181000F583D0E0F08E828F83A3A3A3A3A3A3A319
:10182000C082C0838E828F83A3A3A3A3A3E0F8A367
:10183000E0F9D083D082E0C398F50AA3E099F50BD4
:10184000EE247FF582EF3400F583E064017069EEE9
:101850002480F582EF3400F583E0F8A3E0F98E826E
:101860008F83A3A3A3A3A3A3A3E0FCA3E0FD8E8285
:101870008F83A3A3A3A3A3E0FAA3E0FBC3EA9CEB9B
:101880009D5010C3EC98ED99402EC3EA98EB995007
:1018900027800EC3EA98EB994007C3EC98ED994076
:1018A000177CDB7D04EEFAEFFB122D4AEE247FF568
:1018B00082EF3400F583E4F0EE2434F8EF3400F9DD
:1018C000E8FCE9FDEE2435F582EF3400F583E0F81D
:1018D000EE2437F582EF3400F583E0F50CE50A8558
:1018E0000CF0A4F50AAAF0850CF0E50BA42AF50B80
:1018F000E8250AF8E4350BF97A257B001212FEEA96
:101900008C828D83F0F8740758F97401B900028055
:1019100004C333D9FCFAE8131313541FF8EE28F864
:10192000EF3400F9E8245DF582E93400F583E05AEC
:101930006008EE2434F582EF802CEE2434F582EF3B
:101940003400F583E0C0E0EE2436F582EF3400F594
:1019500083E0F5F0D0E084A8F0EE28F8EF3400F949
:10196000E82438F582E93400F583E0F912256F02A6
:1019700017EDC082C083851A82851B83E0F8A3E03F
:10198000F9C3EA9CEB9D5010C3EC98ED99401BC342
:10199000EA98EB995014800EC3EA98EB994007C37C
:1019A000EC98ED994004790180027900D083D082CF
:1019B00022EAC39CFAEB9DFB2274EF12144C9003B5
:1019C000A1E064086005E06407702A9061C8E060E7
:1019D000249003CFE0F4601DE0F875F003A4C8AADA
:1019E000F02AF974D128FE740339FF8E828F83A305
:1019F000A3A3E07003021AE9906060E0C0E0EE2467
:101A000068F582EF3400F583D0E0F0750E44750F71
:101A100005750A00750B00E5D914F50CE5D95403DA
:101A2000F510601774036510605CE50C6010EE241F
:101A300067F582EF3400F583E07003021ACE90055B
:101A40003FE06401602AEE2482F582EF3400F583E2
:101A5000E06004780480027800850C0AE50AC398E7
:101A6000FA95E0FB122C128A0A8B0BEA450B7005E3
:101A7000122F4E8074EE2482F582EF3400F583E05D
:101A800070048A0E8B0FE50C6012850E82850F8321
:101A9000F50DE5D9F0A3150DE50D70F6EE2482F5F0
:101AA00082EF3400F583E0604474FC250CF50C787B
:101AB0000E1215F3AC0CA910EEFAEFFB122DE67422
:101AC0000212139FE97026AA0AAB0B1236AA793DBF
:101AD0008E828F83A3A3A3A3E0FA7B00122AE6EEF3
:101AE000FAEFFB122D62122DF879008074740365F1
:101AF000106056850C1275130078121215F3AC0E97
:101B0000AD0FAA0AAB0B122DC2740212139FEE2462
:101B100068F582EF3400F583E064807004747F80A0
:101B200001E0F50E780E1215F7E510F50E780E129D
:101B300015F7A90CAC0AAD0B9003CFE0FA7B0012AD
:101B40002AAA740212139F80139003A1E064086014
:101B50000BAC0EAD0FEEFAEFFB122E52122F5A798C
:101B6000017F0A0214F874F512144C74FC121389E4
:101B7000EAFEEBFF890AA2AFE433F50BC2AF806A3D
:101B8000EE2463F8EF3400F97A007B00A2AFE4336F
:101B9000F50CC2AF88828983E0FCA3E0FDEC4D60C8
:101BA0003A88828983E0FAA3E0FB8A828B83E0FC97
:101BB000A3E0FD88828983ECF0A3EDF08A828B8319
:101BC000E4F0A3F088828983E0FCA3E0FDEC4D7093
:101BD0000A88828983A3A3E4F0A3F0E50CA2E09233
:101BE000AF1236AA9004E2E004F0EE2463F582EF2F
:101BF0003400F583E0F8A3E0F9E849603DEE2463A2
:101C0000F582EF3400F583E02402FAA3E03400FB10
:101C1000EA2402F50CEB3400F50D780C1215F38A6A
:101C2000828B83E0FCA3E0F9EEFAEFFB122D8674C1
:101C30000212139FE97003021B809004E2E06063CC
:101C40009004E3E0F89004E2E0C398500C7402655D
:101C50000A70509004E4E0604A8E828F83A3A3A3AD
:101C6000A3E0851A82851B83F0A3E4F09004E2E0F0
:101C7000F874021213D4E8F0A3E4F09004E2E0F860
:101C80009004E1E028F074021213D4AC82AD838595
:101C90001A82851B83AA82AB837901122AB690042B
:101CA000E2E4F0E50BA2E092AF740412139F021776
:101CB000EDFFFFFF8521878522C622C0E0C0D0E866
:101CC000C0E0E9C0E0EAC0E0EBC0E0ECC0E0EDC09D
:101CD000E0EEC0E0C00AC00BC00CC00DC082C083E3
:101CE000C0F0A2AFE433FEC2AF759B00906182E00A
:101CF000A2E05012E591A2E0500C7591FE740165CE
:101D00002170031219B9E0A2E55051E591A2E55006
:101D10004B7591DF9003A1E064076005E0640870F3
:101D20002374016521703579019003CFE0FA75F0D5
:101D300003A4CAA8F028FB74D12AFA74033BFB124F
:101D40001B668018E0640D70139003C3E004F06418
:101D5000287002E4F07A00E0F9122F60906182E0CE
:101D6000A2E64003021E02E591A2E64003021E0223
:101D70007591BF9003A1E064057008122E88122EA1
:101D8000948003122E8E752100122EEEE99003A28C
:101D9000F07900122EE2122CC07A017B009003A091
:101DA000E0F91231B2907803E06442705590054337
:101DB000E014F0704DC2AF121DBA00782AD0E0F6E0
:101DC00018D0E0F6E59F54077005750BFF8003758A
:101DD0000B7FC4C0E07829E6F50A08E6550BF50B41
:101DE000740B780A121367D0E0250AF8906270E04D
:101DF000A2E740F8E8C333906272F0906270E0D2DC
:101E0000E0F0906181E0A2E35009E5E9A2E350032C
:101E100075E9F7A3E0A2E75009E591A2E750037541
:101E2000917FEEA2E092AFD0F0D083D082D00DD0DF
:101E30000CD00BD00AD0E0FED0E0FDD0E0FCD0E02A
:101E4000FBD0E0FAD0E0F9D0E0F8D0D0D0E032C05A
:101E5000E0C0D0C082C083906183E0A2E05009E579
:101E6000BFA2E0500375BFFEE0A2E15009E5BFA2AA
:101E7000E1500375BFFDE0A2E25009E5BFA2E250C8
:101E80000375BFFBE0A2E35009E5BFA2E350037571
:101E9000BFF7E0A2E45009E5BFA2E4500375BFEF2D
:101EA000E0A2E55009E5BFA2E5500375BFDFE0A25F
:101EB000E65009E5BFA2E6500375BFBFD083D082CC
:101EC0008088C0E0C0D0E8C0E0E9C0E0EAC0E0EB54
:101ED000C0E0ECC0E0EDC0E0C0F0E5A7A2E6500F26
:101EE000E5A1A2E6500953A7BF75A1BF121F27E5C0
:101EF000A7A2E5500CE5A1A2E5500653A7DF75A106
:101F0000DFE5A7A2E15009E5A1A2E1500375A1FD1B
:101F1000E5A7A2E2500CE5A1A2E2500653A7FB758B
:101F2000A1FBD0F0021E3874F812144C75210190F8
:101F300003A1E064067015122E168A828B83A3A378
:101F4000A3A3A3A3E0FAA3E0FB122E76A2AFE4338F
:101F5000FED2AF9003A7E0640170187A207B009056
:101F600003A0E0F912323C7A207B009003A0E0F954
:101F70001231B8906182E0D2E6F0900540E0602135
:101F800085C62280169003A6E064017008E5C65459
:101F9000F84405F5C653BEFC121CB47401652160FB
:101FA000E4EEA2E092AF7F010214F8FF8E238F24AB
:101FB000858228858327851A82851B83E0CEA3E04E
:101FC000CF852882852783EBC9EAC8EDCBECCA759B
:101FD000F010C3E833C8E933C9EA33CAEB33CBC3E3
:101FE000EA9EF526EB9FF525B35004AB25AA26EC17
:101FF00033CCED33CDD5F0DAAE23AF242274E91221
:10200000144C74F8121389851A82851B83ECF0A393
:10201000EDF08A0A8B0B9003A1E024F7C3940550DE
:1020200006750A01022194122E168A0C8B0DAE0C35
:10203000AF0DEE4F7003022191AC0AAD0B7402128A
:1020400013D4AA82AB83122EA68E828F83A3A3758C
:102050000EFF750FFF7510FF751100780E12123309
:1020600074021213D47512FF7513FF7514FF7515E2
:10207000007812121233780E7912121058502A7802
:102080000E79121211F8750A01750BC8750C0075DE
:102090000D00780A790E1210585052850E0A850FDD
:1020A0000B85100C85110D80507516017517C875BC
:1020B000180075190085120A85130B85140C8515F7
:1020C0000D780A790E1211F87816790A1210584014
:1020D0001C750A00750B00750C00750D01780A79E6
:1020E000121211F8780A790E1211BF800C750A01CC
:1020F000750B00750C00750D007409780A1211A09B
:10210000750E19F50FF510F511780A790E121117E1
:102110008E828F83A3A3A3A3A3A3E0F8A3E0F97AFD
:10212000D07B031212FE880E890FE4F510F51178AA
:102130000A790E1211BF74061213D4E0F8A3E0F965
:102140007AD07B031212FEE8FA8A0EE4F50F780AC1
:10215000790E1210585007780A790E1211F8900370
:10216000A1E06408600AE064066005E06405702D83
:10217000750E0D780E790A1210584021750EF475FF
:102180000FFF7510FF7511FF780A790E1211BF80CD
:102190000C750A00750B00750C00750D00851A8210
:1021A000851B83E0F8A3E0F5838882780A12126821
:1021B000740812139F7F100214F874F712144C1253
:1021C0002EB890053EE064017010906245E4F0A3E3
:1021D000F053F4F343FE0C5390F3122E64E5C6540F
:1021E000804449F5C6E59E547F644970F890618546
:1021F000740FF090053CE0F47002A3E0604E90058F
:102200003DE0600814601B14602E8040750A017563
:102210000B0090053CE0780A121376E50AF4528030
:10222000802A750A01750B0090053CE0780A1213AC
:1022300076E50AF452908014750A01750B0090053A
:102240003CE0780A121376E50AF452A079007F0286
:102250000214F874F712144CE9FEEAFF74016E7070
:102260000C7A807B009003A0E0F91231B29037D055
:10227000E493F46008E493F9122CB4800953C68007
:10228000E59E547F70FA122E6A90053EE06401705C
:1022900003122CCC90053CE0F47002A3E0604B905C
:1022A000053DE0600814601A14602C803D750A0139
:1022B000750B0090053CE0780A121376E50A42801F
:1022C0008028750A01750B0090053CE0780A12130E
:1022D00076E50A42908013750A01750B0090053C63
:1022E000E0780A121376E50A42A0122EB8122E16D2
:1022F0008A0A8B0BA80AA90BE8496015E5E170FC76
:10230000E82414F582E93400F583E0F46003E0F595
:10231000E174016F700A7A019003A0E0F9123206AD
:1023200002224E74ED12144C8A0A8B0B8C0C8D0D0C
:1023300074131213D4780E121259780A790E1210EF
:10234000587512017513C875140075150050127870
:102350000A790E1211F87812790A12105850168064
:1023600010780E790A1211F87812790E121058406E
:10237000047901800279007F0C0214F874ED1214C4
:102380004C8A0A8B0B8C0C8D0D74131213D4780E9F
:10239000121259780E790A1210584011780A790EE3
:1023A0001211F8AA0AAB0BAC0CAD0D80227512000D
:1023B0007513007514007515017812790E1211F855
:1023C0007812790A1211BFAA12AB13AC14AD1580A2
:1023D000A68A828B83750AFF750BFF750CFF750D3E
:1023E00000780A1212467F040214F874F512144C95
:1023F0008C828D83780A1212598A828B83780A1212
:10240000120CEA2404F8EB3400F98C828D83A3A328
:10241000A3A3E0FCA3E0FD88828983C3E09CF0A332
:10242000E09DF088828983C3E09420A3E0944E402D
:10243000268A828B83750AFF750BFF750CFF750D5D
:10244000FF780A1211E58A828B83A3A3A3A3E02459
:1024500020F0A3E0344EF00223D174F512144CE9BD
:10246000FE9004F6E0FAA3E0FBEEC333F8E433F9A0
:10247000740528F582748139F583E02AF50AA3E012
:102480003BF50B780A1215F37A407B427C0F7D00F6
:10249000121FAC740212139F8A0A8B0B8C0C8D0DC9
:1024A0007410780A121187AA0AAB0B7F040214F881
:1024B00074F112144C8A0E8B0F8C108D11740F1244
:1024C00013D4E0FAA3E0FB74111213D4E0F50AA3CD
:1024D000E0F50B780A1215F3EA2401F50AEB340053
:1024E000F50BE4F50CF50D780E790A121097750AC4
:1024F00071750B02780E790A121097AA0EAB0FAC09
:1025000010AD11121FAC740212139F8B0BEA450B16
:1025100060047A0180027A00EC2AFCED3400FD743C
:10252000131213D4E0F8A3E0F9E8FEE9FFECF8EDAC
:10253000F97A717B021212FE880A890B8E828F83D0
:10254000780A121268ECF8EDF97A717B021212FE29
:102550008A0A8B0B7405780A1213768E828F83A3F6
:10256000A3A3A3E50AF0A3E50BF07F080214F8C0CB
:1025700082C083E9906000F0D083D08222C2AF0293
:10258000000022C0E074F2121538A2AFE433FED28C
:10259000AFE589A2E05003123554758900C2C5EE3B
:1025A000A2E092AF7F01021597C0E074F2121538D5
:1025B000A2AFE433FED2AFE58AA2E64006E58AA2E6
:1025C000E75003123554758A00758A00C2EB80CF3C
:1025D000C0E0C0D0E8C0E0E9C0E0E5A8D2AF758BAC
:1025E00000C2E8A2E7A2E792AFD0E0F9D0E0F8D0CD
:1025F000D0D0E032C0E0C0D0E8C0E0E9C0E0E5A85B
:10260000D2AFC2C7751C00A2E7A2E792AFD0E0F933
:10261000D0E0F8D0D0D0E03212102E95CB071210B7
:102620002EACCB0712102EDDCB0712102E18CC07C4
:1026300012102E42CC0712102E6CCC0712102E83D3
:10264000CC0712102E9ACC0712102EB1CC07121004
:102650002EDACC0712102EEDCC0712102E03CD0768
:1026600012102E16CD0712102E3DCD0712102E2857
:10267000CF0612102E2CD00612102E64D006121087
:102680002E87D00612102E92D00612102EB5D0062C
:1026900012102EC4D10612102E99D20612102E142A
:1026A000D30612102E9CD30612102ED7D30612106A
:1026B0002E0ED40612102E9CD40612102E75D5069E
:1026C00012102ED5D50612102EE0D50612102E5F50
:1026D000D60612102E62D60612102E65D6061210DD
:1026E0002EF4D60612102EF7D60612102E27D70675
:1026F00012102E51D70612102E3FD80612102EF1AE
:10270000D80612102EBAF40612102EE2F406121099
:102710002E10F50612102E47F50612102EA5F506FE
:1027200012102EF0F50612102E3BF60612102E7B1C
:10273000F60612102EC1F60612102EEFF606121033
:102740002EACF70612102EB6F70612102EC3F7069F
:1027500012102EF6F70612102EC2F80612102ECE08
:10276000F80612102EE6F80612102EF0F8061210D7
:102770002E47DE0712102E55DE0712102E6DDE07D3
:1027800012102E85DE0712102EBECC0512102E6AF6
:10279000CD0512102EE5CD0512102E06CF05121014
:1027A0002E42CF0512102EEBCF0512102ED2D005DF
:1027B00012102E36D20512102E8DD20512102E0EAA
:1027C000D30512102EFED30512102E4BD405121075
:1027D0002ED1D40512102E03D50512102E17D705B1
:1027E00012102E59D70512102E77D70512102EFA77
:1027F000D70512102ECED80512102E96D90512101C
:102800002EE7F70412102EBAF80412102E63F90402
:1028100012102EB6F90412102E66FA0412102EF2BF
:10282000FA0412102EDEFB0412102E0DFC041210FE
:102830002E20FD0412102E68FD0412102E3DFE0401
:1028400012102E79FE0412102E95FE0412102EC9BD
:10285000DF0712102E17AC0712102E2DAC07121026
:102860002E53AC0712102E6FAD0712102E79AD0744
:1028700012102EAEAE0712102EA6AF0712102E9316
:10288000EF0612102EC3F00612102EF6F0061210EC
:102890002E40F10612102E07F30612102E70AD0511
:1028A00012102EDAAD0512102E39AF0512102E4976
:1028B000AF0512102E76AF0512102ECDAF051210F7
:1028C0002E76B00512102E7DB10512102E47B205DE
:1028D00012102EA7B30512102EEAB30512102E8F78
:1028E000B40512102EDCB40512102E02B50512101C
:1028F0002E10B70512102E15B70512102E1AB90595
:1029000012102E67B90512102EDAB90512102E0D0D
:10291000BA0512102EAFBA0512102E58BB051210B0
:102920002E90BB0512102E93BB0512102EDBBB059B
:1029300012102E1BBC0512102E72BC0512102E4C4C
:10294000BC0712102E64BC0712102EACBC0712106C
:102950002EC2BC0712102E09BD0712102E1DBE0775
:1029600012102EAABE0712102EF5BE0712102E004E
:10297000B00412102E0CB00412102E47B004121026
:102980002E8CB00412102E4CB10412102ED2B104B1
:1029900012102E37B20412102E63B20412102E9CA5
:1029A000B20412102EDAB40412102EBEB6041210A5
:1029B0002EA4B80412102EE7B90412102E35BC0450
:1029C00012102E47BD0412102E92BE0412102EA219
:1029D000BF0412102EBFBF0412102EFABF04121033
:1029E0002E1CC00412102E7FC00412102E40C504ED
:1029F00012102ED5C50412102E26C60412102E4D0C
:102A0000C60412102E9FC60412102EBDC60412104A
:102A10002E17C70412102E00C80412102E76C904F7
:102A200012102EFAC90412102E77F90612102E81F8
:102A3000F90612102EC4F90612102EDFF906121034
:102A40002E6FFA0612102E97FA0612102ED4FA06DE
:102A500012102E0BFB0612102E34FB0612102EA99C
:102A6000FB0612102EBEFB0612102ED3FB06121010
:102A70002E04FC0612102E18FC0612102E3DFC0629
:102A800012102E77FC0612102EA3FC0612102EDB5D
:102A9000FC0612102E5AFD0612102EA3FD0612106F
:102AA0002ECDFD0612102EF8FD0612102E3CDA0770
:102AB00012102E27B70612102E55B70612102EA38D
:102AC000B80612102E83B90612102EA2B9061210E3
:102AD0002E1FBA0612102E62BA0612102EB8BB06AE
:102AE00012102E79BC0612102E00BF0612102EA155
:102AF000BF0612102E97C00612102E94C106121097
:102B00002EEEC20612102E79C30612102EFCD40728
:102B100012102E65D50712102EB9D50712102EE00F
:102B2000D50712102E11D60712102E9A84071210F4
:102B30002E07850712102E4E850712102E66860767
:102B400012102E62870712102E45880712102E626F
:102B5000D90612102EA4D90612102E76DA061210FB
:102B60002E4FDB0612102E49DC0612102E2BDD062E
:102B700012102E94DD0612102E4ADE0612102EBE02
:102B8000DE0612102E2ADF0612102E53DF06121058
:102B90002ECDDF0612102E66E00612102ECBE006B8
:102BA00012102EE0E00612102E26E10612102E3F23
:102BB000E10612102EA4E10612102EA7E106121053
:102BC0002E73B60712102E9BB60712102ED9B60719
:102BD00012102E97B70712102EFEB70712102E1ADA
:102BE000B80712102E42B80712102E72B807121032
:102BF0002E81B80712102EFEB80712102E24B90726
:102C000012102E5FBD0512102E3DBF0512102E6F43
:102C1000C10512102EABC10512102ED8C10512101D
:102C20002EC2C20512102E0DC30512102E58C30558
:102C300012102E6AC30512102EAAC30512102EDF21
:102C4000C30512102E2DC40512102E5CC4051210DF
:102C50002E7FC40512102ECCC40512102E51C505AE
:102C600012102E68C70512102EA7C90512102EE8E3
:102C7000C90512102E8ACB0512102ECBCB051210CF
:102C80002E3ECC0512102E94CC0512102E12AA0640
:102C900012102E10AB0612102EA9B10612102ECA59
:102CA000B30612102E95B50612102EFDB6061210A0
:102CB0002E61CA0412102EF8CA0412102E25CB045D
:102CC00012102E6BCB0412102EABCC0412102E411E
:102CD000CE0412102EBBCE0412102ED6CE0412102B
:102CE0002E51CF0412102EABD00412102E0BD20492
:102CF00012102E11D30412102E72D40412102E8B27
:102D0000D40412102EE9D40412102ED7D5041210B8
:102D10002E0AD60412102E7AD60412102EF4D604DF
:102D200012102E3ED70412102E08D80412102EDDD9
:102D3000D80412102EBCD90412102E47DA04121037
:102D40002EB5DA0412102E29DB0412102E54DB04E7
:102D500012102E13DC0412102E78DD0412102E95A2
:102D6000DD0412102EB4DD0412102EA5DE041210A4
:102D70002ECADE0412102EF4DE0412102E6FDF04B1
:102D800012102EC9DF0412102E32E10412102EE0B0
:102D9000E10412102E21E20412102E3E9C061210A5
:102DA0002E8C9C0612102E989C0612102E769D06D4
:102DB00012102EA79D0612102ED89D0612102E5806
:102DC0009E0612102E909E0612102EE29E061210E3
:102DD0002E1F9F0612102E3CA10612102E62A30673
:102DE00012102E4DA50612102E37A70612102EFA1D
:102DF000FF0412102E5D990512102E8D99051210E8
:102E00002E66A00512102EEBA10512102EE8A705C4
:102E100012102ED0A80512102E0DA90512102E305A
:102E2000A90512102E61A90512102E6AA90512100B
:102E30002E74A90512102E62AA0512102E58AB0589
:102E400012102E4E840512102E4D880512102E538E
:102E5000880512102E8E8F0512102EA794051210C1
:102E60002EA8A40712102E3EA50712102E54A50757
:102E700012102ECAA50712102E3EA60712102E7C85
:102E8000A60712102EF0A60712102E69A70712101F
:102E90002E72A70712102E7EA70712102E93A707D7
:102EA00012102ED1A70712102EE7A70712102E46D8
:102EB000A80712102E07890712102E148907121066
:102EC0002E2E890712102E6D890712102EAB89073E
:102ED00012102E108A0712102E258A0712102E307B
:102EE0008A0712102E3D8A0712102E548A071210DC
:102EF0002E628A0712102E6D8A0712102E798A0709
:102F000012102E888A0712102E938A0712102EB6DE
:102F10008A0712102E5D8B0712102E6D8B07121070
:102F20002E878B0712102EA48B0712102EC08B0732
:102F300012102EE58B0712102EEF8B0712102E03A6
:102F40008C0712102E228C0712102E838C07121061
:102F50002E898C0712102E8F8C0712102E958C073D
:102F600012102EA18C0712102ED48C0712102E05D1
:102F7000800612102E89800612102E38810612103B
:102F80002E97820612102EB8840612102EA48506E3
:102F900012102ED9850612102EFB850612102EAAAD
:102FA000860612102EA2880612102ECB880612104A
:102FB0002E5D890612102E8F890612102E9C89060E
:102FC00012102EF3890612102E198A0612102E8660
:102FD0008C0612102E898D0612102EE18D0612100D
:102FE0002E72EA0512102E7CEB0512102E63EC05F2
:102FF00012102E6DEC0512102E8FEC0512102E9B68
:10300000EC0512102E34EE0512102E63EE05121090
:103010002E7FEF0512102ED8EF0512102E3EF1056F
:1030200012102E1DF20512102E79F20512102EE646
:10303000F20512102E21F30512102E60F305121066
:103040002E19F60512102E33F60512102EBFF605B6
:1030500012102ECDF60512102E26F70512102E3462
:10306000F70512102EA7F70512102E0BF8051210F7
:103070002E55F80512102EFAC30612102E1CC40687
:1030800012102E42C60612102E57C90612102E6FAD
:10309000CA0612102E22CB0612102E04CC061210D5
:1030A0002E4FCD0712102E74CD0712102EE6CD072D
:1030B00012102ED4370012102EDD370012102EE61B
:1030C000370012102EBD380012102E6E3A0012106A
:1030D0002EA43A0012102EDE3A0012102E143B00DD
:1030E00012102E4E3B0012102E823B0012102EAEFC
:1030F0003B0012102EF73B0012102E313C00121034
:103100002E7A3C0012102ED23C0012102E073D00E9
:1031100012102E623D0012102E9C3D0012102EED5A
:103120003D0012102E233E0012102E5D3E001210A4
:103130002E8B3E0012102EAE3E0012102E1EDF0708
:1031400012102E4ADF0712102EA5DF0712102EAF25
:10315000DF0712102EBFDF0712102E0DEA06121025
:103160002E17EA0612102E55EA0612102E9EEA06B7
:1031700012102ED8EA0612102E32EB0612102E5321
:10318000EB0612102E5CEB0612102EA9EB061210A5
:103190002ED2EB0612102EDCEB0612102E48EC0697
:1031A00012102EDAEC0612102E24ED0612102E5AF2
:1031B000ED0612102EE6ED0612102E27EE06121066
:1031C0002E5EEE0612102E70EE0612102E8FEE06F8
:1031D00012102E98EE0612102E65EF0612102E50C9
:1031E000DD0712102EF5C50712102E2BC607121080
:1031F0002E61C60712102EACC70712102E4E3F00CC
:1032000012102E643F0012102E6E3F0012102EB8C6
:103210003F0012102EC2E00712102E00800712107D
:103220002E15800712102EC5800712102E0581075B
:1032300012102E1E810712102E59810712102EA671
:10324000810712102ED8810712102E1A8207121031
:103250002E1B840712102E8D840712102E59DC07A6
:1032600012102E82DC0712102EB1DC0712102EC9AC
:10327000DC0712102E0BDD0712102EAFDB0512102B
:103280002E45DE0512102E25E20512102E55E20500
:1032900012102E39E30512102E65E40512102E04CB
:1032A000E50512102E72E50512102EEDE50512103F
:1032B0002E6DE60512102EE8E60512102E62E705C7
:1032C00012102EE7E70512102E78E80512102ED303
:1032D000E80512102E81E90512102E6495071210D0
:1032E0002EA9950712102ED2950712102E5B960765
:1032F00012102E9E960712102E82970712102EFC87
:10330000980712102E518D0712102E968D0712104D
:103310002EBF8D0712102E958E0712102EEB8E07E2
:1033200012102EDC8F0712102E5A910712102EB099
:10333000AF0712102EF5AF0712102E12B0071210A1
:103340002EA9B00712102EF7B00712102EB7B10732
:1033500012102EF8B20712102E6CB90712102E910F
:10336000B90712102EBBB90712102E21E107121057
:103370002E51E20412102EB6E40412102E57E60469
:1033800012102E0BE70412102E9EE70412102E23AB
:10339000E80412102E48E80412102E9EEB041210BE
:1033A0002E24EC0412102E57ED0412102E91ED0471
:1033B00012102EC6ED0412102E86EF0412102EE30A
:1033C000EF0412102E2CF00412102E97F00412109D
:1033D0002E08F10412102E3AF10412102E52F104AC
:1033E00012102E9BF20412102EABF20412102EC6F5
:1033F000F30412102EE8F30412102E1EF40412101F
:103400002ED2F50412102E5FF60412102E9EF60432
:1034100012102EC2F70412102E93910712102ED8FC
:10342000910712102E01920712102E8A9207121085
:103430002ECD920712102EB1930712102E2B950746
:1034400012102E96D00712102EA6D00712102EDFC3
:10345000D00712102EAFD10712102E35D20712103E
:103460002E70D20712102E8DD20712102E05D30700
:1034700012102E25D30712102EE3FF0412102EEE89
:10348000FF0412102EE63F0012102E0AFF04121045
:103490002E1AFF0412102E29FF0412102EDDFF0435
:1034A00012102E55DB0712102EDADB0712102E40F9
:1034B000DC0712102EE6C70712102EFAC7071210EB
:1034C0002E34C80712102E8DC80712102E2AC907D5
:1034D00012102E4DC90712102E59C90712102E8C2A
:1034E000C90712102E57D60712102E8BD6071210AE
:1034F0002E3AD70712102E6ED70712102EAFD7070D
:1035000012102EE3D70712102E0CD80712102E839C
:10351000D80712102EF2D80712102E1FBF07121054
:103520002E39BF0712102E61BF0712102E88BF0759
:1035300012102E2DC00712102E73C00712102E9BD2
:10354000D30712102EC3D30712102E35D407121032
:103550002E4FD40712102EA7D40712102EF0D40726
:1035600012102EF3D40712102E76A80712102E84F4
:10357000A80712102EFEA80712102ED6A9071210A7
:103580002E91AB0712102ED6AB0712102E04AC07EB
:1035900012102E20FE0612102E26FE0612102E727B
:1035A000FE0612102EA6FE0612102EBEFE061210E9
:1035B0002E45FF0612102EFFD80712102E4AD907EB
:1035C00012102EA5D90712102E13DA0712102EF89A
:1035D0003F0012102EB0C30712102E4BC507121059
:1035E0002EACC50712102EF2C50712102E35990702
:1035F00012102E7A990712102EA3990712102E2C52
:103600009A0712102E6F9A0712102E539B07121052
:103610002ECD9C0712102ED7A00712102E1CA1072A
:1036200012102E45A10712102ECEA10712102E1136
:10363000A20712102EF5A20712102E6FA407121067
:103640002E069D0712102E4B9D0712102E749D07FB
:1036500012102EFD9D0712102E409E0712102E24D0
:103660009F0712102E9EA00712102EDEF8051210D2
:103670002E1BF90512102E36F90512102E07FA0529
:1036800012102EF5FA0512102E5DFC0512102ECF29
:10369000FC0512102EB7FD0512102E3EFE0512106D
:1036A0002E57FF0512102EF4CE0712102E46CF070C
:1036B00012102ED0CF0712102E37D00712102E6BFB
:1036C000C10712102E95C10712102E63C2071210E7
:1036D0002E3EC30712102ECBE10612102E92E206E8
:1036E00012102EC9E20612102EF3E20612102E530B
:1036F000E30612102EA9E30612102E0EE406121095
:103700002EA6E40612102EB5E50612102E4CE70682
:1037100012102ED9E70612102E40E80612102E576E
:10372000E80612102E71E90612102EAFE9061210EB
:103730002E2F8E0612102EB0910612102E389306E0
:1037400012102E88930612102E9F930612102EBE72
:10375000930612102E3C940612102ED295061210CB
:103760002EB7960612102EC59A0612102E9B9B0697
:1037700012102EC8C90712102E0DCA0712102E6182
:10378000CA0712102EE4CA0712102E5CCB071210C3
:103790002E9BFF0512102E1DB30712102E62B307C9
:1037A00012102E8FB30712102E05B40712102E40E0
:1037B000B40712102E1EB50712102E3AB6071210BB
:1037C0002E77E10712102EA3E107FFFFFFFFFFFF97
:1037D000FFFFFFFFC082C0837901023B78C082C037
:1037E000837902023B7874F51213E08A0A8B0BECA2
:1037F000FEEDFFEE4F6005EA450B700579020238D9
:103800009F8E828F83E9123BF08A828B831238A5C8
:103810008A828B831238A4EA2402FAEB3400FB126A
:103820002FB4E91238A6850A82850B83A3A3A312BD
:1038300038A4123A5988828983E054086004D2F08F
:103840008002C2F0A2F01238B0541060047A0280F4
:10385000027A008E828F83E04A1238B654206004C8
:103860007A0480027A008E828F83E04A1238AA8816
:10387000828983E0A2E01238B0540260047A0280A8
:10388000027A008E828F83E04A1238B654046004B4
:103890007804800278008E828F83E048F079007F80
:1038A000030214B2A3E08E828F83F0A30EAF8322B3
:1038B000E4338E828F83F088828983E02274ED1254
:1038C00013E0EAFEEBFF8C0A8D0BEE4F6005EC4532
:1038D0000B70057902023A548E828F83A3AE82AFB9
:1038E00083E08C828D83123A648C828D83A38582DF
:1038F0000C85830D8E828F83E0850C82850D83126B
:103900003A64E0F9EC2402FAED3400FB122FBA8E8F
:10391000828F83A30EAF83E50A2404F50EE50B34F2
:1039200000F50FE0850E82850F83F08E828F83A3D2
:10393000E0F514A30E0EAF83A2E0E433F510751189
:1039400000E514A2E15004D2F08002C2F0A2F0E43B
:1039500033F512751300E514A2E25004D2F0800290
:10396000C2F0123A59E8FAE9FB8A828B83E054F7F5
:10397000FCA3E0FD74037810121376EC451054EFAD
:10398000FC74047812121376EC451254DFFCA2F09A
:10399000E433F51074057810121376EC4510FC8AA8
:1039A000828B83F0A3EDF08E828F83E0F514A2E08A
:1039B000E433FEE514A2E15004D2F08002C2F0A28A
:1039C000F0E433F8E514A2E25004D2F08002C2F031
:1039D000EC54FE4E54FDFCE8C333F8EC48F8EDF926
:1039E000E8543BFCA2F0E433F51074027810121393
:1039F00076EC45108A828B83F0A3E9F07A217B0074
:103A00001227088A108B11A810A911850E82850F24
:103A100083E0C398E499401A7A227B001227088A2F
:103A200010850E82850F83E0FAC3E5109AEB9400AF
:103A300050047912801E850A82850B83E0C39405A9
:103A4000500C850C82850D83E0C3940240047918E4
:103A5000800279007F0B0214B2E50A2405F8E50B19
:103A60003400F922F08E828F83A30EAF832274F686
:103A70001213E0ECFEEDFFEE4F6004EA4B700479A8
:103A800002801E8E828F837403123BE41215F3EAC8
:103A9000FCEBFDEEFAEFFB12315E740212139F791C
:103AA00000023CCD74F61213E0ECFEEDFFEA4B6031
:103AB00004EE4F700479028022750A10750B0078AD
:103AC0000A1215F38A828B83A3AC82AD83EEFAEFE0
:103AD000FB12315E740212139F7900023CCD74F622
:103AE0001213E0ECFEEDFFEE4F6004EA4B70047938
:103AF00002801E8E828F837404123BE41215F3EA57
:103B0000FCEBFDEEFAEFFB12315E740212139F79AB
:103B100000023CCD74F61213E0ECFEEDFFEA4B60C0
:103B200004EE4F700479028022750A10750B00783C
:103B30000A1215F38A828B83A3AC82AD83EEFAEF6F
:103B4000FB12315E740212139F7900023CCDC082D9
:103B5000C083EC4D6004EA4B7004790280188C82BB
:103B60008D837405F0A3AC82AD838A828B83E08C55
:103B7000828D83F0790080031230BCD083D0820222
:103B8000102BC082C083EA4B6004EC4D70047902B4
:103B9000801A8A828B83A3E0F88C828D83F0C39491
:103BA0000A5003E8700479188002790080CD74F619
:103BB0001213E0ECFEEDFFEE4F6004EA4B70047967
:103BC00002801E8E828F837406123BE41215F3EA84
:103BD000FCEBFDEEFAEFFB12315E740212139F79DB
:103BE00000023CCD123BF0750A10750B00780A22DA
:103BF000F0A3AE82AF832274F61213E0ECFEEDFF69
:103C0000EA4B6004EE4F700479028022750A107549
:103C10000B00780A1215F38A828B83A3AC82AD83E2
:103C2000EEFAEFFB12315E740212139F7900023C30
:103C3000CD74F61213E0EAFEEBFFECFAEDFBEA4B73
:103C40006004EE4F70047902802E8A828B837407A1
:103C5000123D498E828F83A3123D57750A08750B5A
:103C600000780A1215F3EE2402FCEF3400FD123145
:103C70005E740212139F7900805374F61213E0EC05
:103C8000FEEDFFEA4B6004EE4F70047902803E8A3D
:103C9000828B83A3AA82AB83E0FCA3E0F8E4C8F99B
:103CA000EC8E828F83F0A3E9F0750A08880B780AFE
:103CB0001215F3EA2402FCEB3400FDEE2402FAEFC5
:103CC0003400FB12315E740212139F79007F0202EE
:103CD00014B274F61213E0ECFEEDFFEE4F6004EA4E
:103CE0004B70047902801E8E828F837408123BE42D
:103CF0001215F3EAFCEBFDEEFAEFFB12315E7402F3
:103D000012139F790080C674F61213E0EAFEEBFFEF
:103D1000ECFAEDFBEA4B6004EE4F70047902802769
:103D20008A828B837409123D49750A06750B0078E7
:103D30000A1215F38E828F83A3AC82AD8312315E9B
:103D4000740212139F79008084F0A3AA82AB838E41
:103D5000828F83123D5722E08A828B83F0A30AABC5
:103D6000832274F61213E0ECFEEDFFEA4B6004EEE2
:103D70004F700479028022750A10750B00780A12C0
:103D800015F38A828B83A3AC82AD83EEFAEFFB122C
:103D9000315E740212139F7900023CCD74F6121347
:103DA000E0ECFEEDFFEA4B6004EE4F700479028018
:103DB000398A828B83A3AA82AB83E08E828F83F0C1
:103DC0008A828B83A30AAB83750A06750B00780A77
:103DD0001215F3EAFCEBFD8E828F83A3AA82AB83DC
:103DE00012315E740212139F7900023CCD74F612F8
:103DF00013E0ECFEEDFFEE4F6004EA4B7004790235
:103E0000801E8E828F83740A123BE41215F3EAFC43
:103E1000EBFDEEFAEFFB12315E740212139F790094
:103E2000023CCD74F61213E0ECFEEDFFEA4B6004A9
:103E3000EE4F700479028022750A10750B00780A23
:103E40001215F38A828B83A3AC82AD83EEFAEFFB6B
:103E500012315E740212139F7900023CCD74F71286
:103E600013E0ECFEEDFFEE4F6004EA4B70047902C4
:103E700080148E828F83740B123BF0122FB4E98E64
:103E8000828F83F079007F010214B2C082C083EA7E
:103E90004B6004EC4D7004790280108A828B83A3FE
:103EA000E0F9ECFAEDFB122FBA7900023B7B74F3D8
:103EB0001213E074FA1213898A0A8B0B890EECFE36
:103EC000EDFF74131213D4E0F8A3E0F9880C890D08
:103ED000851A82851B837406F0A3E4F0850E82AAFE
:103EE00082FB74041213D4EAF0A3E4F0122BB8742A
:103EF000021213D4EAF0A3EBF074021213D4E0FC24
:103F0000A3E0FDEC4D6036EEFAEFFB850C82850DEB
:103F1000831213DEE9FE7013851A82851B83AC823F
:103F2000AD83AA0AAB0B122B10E9FEEE60117402EE
:103F30001213D4E0FAA3E0FB1236AA80027E131219
:103F40002F8AEEF9740612139F7F050214B2C08205
:103F5000C083900752E4F090074CF0A3F0D083D0D8
:103F60008202102BC082C083E990075280EE74F663
:103F70001213E0E9FB90844DE0F8EBC3984004791C
:103F8000038030750A01750B00EB780A121376ACCA
:103F90000AAD0BEA7011ECF4F8EDF4F990074CE07F
:103FA00058F0A3E059800990074CE04CF0A3E04D95
:103FB000F079007F020214B274F41213E0900752F9
:103FC000E0601E90074CE0F8A3E0F9E8497012E5C4
:103FD000A8FEC2AF12324EEEA2E7A2E792AF1235B0
:103FE000D27F040214B27408F5D575D48F7408F525
:103FF000D375D29702102BFF851C87C2AF02102BFE
:020000040002F8
:10300000C082C083E9900AC8F002B28F74F712132D
:10301000E0E99002E0F07C187D037AFF7BFF122943
:10302000FC9002E174FFF0A3F0A3E4F0A3F07905B3
:103030001229849002E0E0F91228A67A1A7B2A125B
:103040002BC47F010214B274F41213E08A0A8B0BB2
:10305000EB548060309002E0E0F912319A8A0C8BD8
:103060000DAE0CAF0DEE4F60138E828F83E064B017
:10307000700312299CEEFAEFFB123188AA0AE50BC5
:103080006480FB80047A007B0002B25E74F212134B
:10309000E074FC121389EAFEEBFFEE4F6038740215
:1030A0001213D4EEF0A3EF12B4C3ECF0A3ED12B4FC
:1030B000C3AA82AB831228A0E9F50A7073741212B6
:1030C00013D412C077E50C450D60658E828F831294
:1030D000B13AEE4F7005750A0280557A067B0012F0
:1030E00031EE8A0E8B0FA80EA90FE8497005750AFC
:1030F00013803D88828983E412B144A3A3EEF0A338
:10310000EF12C510E50CF0A3E50DF09002E612B148
:10311000CC9002E66017E0FCA3E08003EAFCEBFD44
:103120008C828D8312B1CC70F38C828D8312BF9C04
:10313000A90A740412139F02C712A3A3A3A3E0FE5B
:10314000A3E0FF22F0A3F0888289832274F2121395
:10315000E0890CE975F017A4FEAFF09002E5E4F009
:103160009002E312B1CC600A1231F49002E3E4F071
:10317000A3F0EEFAEFFB1231EE8A0A8B0BEA450B55
:10318000602FEEFCEFFD79001231769002E3E50A44
:10319000F0A3E50BF07B00800812B1B6E4F0A3F0D9
:1031A0000BEBC3950C40F2E50C9002E5F079008042
:1031B00002791302C712EB75F017A4F8A9F0900278
:1031C000E3E028FAA3E0398A82F5832212BD32EACD
:1031D0004B2274F41213E0750A00750B00740C1284
:1031E00013D412C4E4FEE9FF800CE50A2401F50AB9
:1031F000E50B3400F50BC3E50A9CE50B9D503285C9
:103200000A0C850B0D7403780C121376EA250CF862
:10321000EB350DF988828983A3A3A3A3A3A312C0CE
:1032200077EE650C7003EF650D70BFE8FAE9FB807F
:10323000047A007B00802774F41213E07900EAA27C
:10324000E0501B750A64750B83780A1215F37C0431
:103250007D007ACA7B0A12297E740212139F7F04B2
:103260000214B2C082C0839002E612B296601C883B
:10327000828983A3A3E06A7003A3E06B88828983B9
:1032800070E8A3A3A3A312BD2E80047A007B00D014
:1032900083D08202102B12C7E5E8492274EE121384
:1032A000E074FC121389EAFEEBFF851A82851B830A
:1032B000E4F0A3F0EE240212BF80EE240512B4B1B4
:1032C000EE2404F510EF12B896E024FE603924FCD9
:1032D000604624FE605224FE605E24FE700302B34A
:1032E000B624FE700302B42E24FE700302B43D2403
:1032F000FE700302B44C24FC700302B45B24FE7025
:103300000302B46A02B4A79002FF7417F0A3E41298
:10331000B4CB12261E02B4A7851A82851B83AC8209
:10332000AD831229A202B477851A82851B83AC82F1
:10333000AD831229A802B477850E0A850F0B74029B
:103340001213D4AC82AD83850A82850B8312BD2E05
:103350001228C48A0E8B0FAC0EAD0FEC4D6042E408
:10336000F50EF50F780E1215F3750EFF750F027836
:103370000E1215F3750E00750F03780E1215F37407
:10338000081213D412160A791612BD281229E474F1
:103390000812139FE9F50E700B12BD241226368019
:1033A0000F750E01850A82850B8312B4B912BF9C7A
:1033B000850E0A02B47A74021213D4AC82AD8385EE
:1033C0000E82850F8312BD2E1228C48A128B13AC75
:1033D00012AD13EC4D6043850E82850F83A3A312BB
:1033E000160A7512FF75130278121215F375120082
:1033F00075130378121215F374081213D412160AF7
:10340000791612BD281229E4740812139FE9F50BEE
:10341000700B12BD2412263C800F750B01850E82A5
:10342000850F8312B4B912BF9C850B0A804C851A94
:1034300082851B83AC82AD831229AE803A851A82C5
:10344000851B83AC82AD831229B4802B851A8285BB
:103450001B83AC82AD831229BA801C851A82851B1E
:1034600083AC82AD831229C0800D851A82851B83AF
:10347000AC82AD831229C6E9F50AE50A60298E827D
:103480008F83A3E06414601F851082851183E09010
:1034900002FF12B4C312C7E190030012BF9CE50AF9
:1034A000A312B4CB122618EEFAEFFB12294202BE89
:1034B00088F50EEF3400F50F2212C7E5851A8285D4
:1034C0001B8322F0851A82851B8322F07CFF7D02FC
:1034D000850C82850D8312BD322274EE1213E074C6
:1034E000FC1213898A0C8B0D8C108D11EA2405F5C2
:1034F0000AEB3400F50B7C157D0079007AFF7B0226
:10350000123176E50A2402F50EE50B12B4B4851AE1
:1035100082851B8385821285831378121215F385A9
:103520000A82850B83A3A3A3A312B9DE1215F3E5C8
:103530000A2405F512E50B3400F51378121215F381
:10354000850E82850F8312BD381228BE74061213B1
:103550009F8A128B13AE12AF13E50C2402F50CE513
:103560000D12BF83EE4F700302B6A08017740212D3
:1035700013D412BD2E88828983EAF0A3EBF0900267
:10358000FFE004F09002FFE0C39405400302B6A000
:10359000E4F512F51378121215F37512E87513029B
:1035A00078121215F37512E975130278121215F3D9
:1035B00074061213D412160A7910EEFCEFFD12BD38
:1035C000281229E4740812139FE9705E850A828527
:1035D0000B83A3A3A3A3A3A3A3E0F89002E8E0684E
:1035E000704812B9DE1215F37CE97D02E50A240861
:1035F000FAE50B3400FB123170740212139FE9607C
:10360000298E828F83A3A3A3A312BD2E9002FFE075
:10361000F5127402781212137674002512F5827472
:10362000033513F583EAF0A3EBF074021213D4858B
:10363000821285831378121215F374021213D412B6
:10364000160A850E82850F8312C7F61228CA7404E3
:1036500012139F8A128B13AE12AF139002FFE0F584
:10366000127513007402781212137674FF2512F883
:1036700074023513F988828983A312B1CC700302D6
:10368000B564E82403F8E93400F9EE4F600302B5AD
:103690006D8882898374FFF0A3F09002FFE004F04C
:1036A0009002FFE0600A12BD2412262A7900800BE6
:1036B000850A82850B8312BF93790A02BE8874EA59
:1036C0001213E074FE1213898C148D15EA2405F58B
:1036D0000EEB12C96012B13E750A00750B00EA24A8
:1036E00002F512EB3400F513851A82851B8385825F
:1036F0000C85830D780C1215F3850E82850F83A33C
:10370000A3A3A312B8A01215F3E50E2405F50CE54A
:103710000F12BF83780C1215F3850E82850F83126A
:10372000C7F41228BE740612139F8A0C8B0DEA454B
:103730000D700302B851EA2404F510EB12B896128A
:10374000B13E8A828B83A3A3A3E0F98512828513FD
:103750008312BD2E1228ACE9F50B600302B851E4C8
:10376000F516F51778161215F37516E87517027821
:10377000161215F37516E975170278161215F374FB
:10378000061213D412160A7913AC0CAD0D851282F1
:1037900085138312BD2E1229E4740812139FE9F5D4
:1037A0000B600302B8519002E8E0F8E50A7009E006
:1037B0002402900300F08017900300E0FCE824024C
:1037C000FAE43400FBEA6C7001EB600302B8558543
:1037D0000A82AA8212B9D5941412B9CD50738510F9
:1037E00082851183E0C0E074012A12B88DD0E0F028
:1037F000050A851082851183A3E0C0E0850A0C7458
:1038000001250C12B88DD0E0F0050A9002E812B83C
:10381000A01215F37CE97D02850A0C7401250CFACF
:1038200074033400FB12315E740212139F9002E89D
:10383000E0250AF50A74FF6E700374FF6F6012EEE4
:1038400024010EEF3400FFE50AC39414500302B6BE
:10385000E8E50A601312BC1985128285138312BD34
:103860002E12263079008014E50B7003750B0A8543
:103870001482851583EEF0A3EFF0A90B74021213E6
:103880009F7F0E0214B2850A0E7401250EF5827414
:10389000033400F583223400F511851082F583226C
:1038A00012C5232274EE1213E074FE1213898C10D9
:1038B0008D11EA2405F50EEB12B4B4750D009002DB
:1038C000FFE4F0F50CEA2402F50AEB3400F50B8076
:1038D000499002FFE0FA9002E8E0F812B9D5941797
:1038E00012B9CD400D9002FFE0F87416C398900213
:1038F000E8F012B9DE1215F37CE97D0274002AFAB1
:1039000074033400FB12315E740212139F9002E8BC
:10391000E0F89002FFE028F0050CE50E2416F58291
:10392000E50F12B891E0F8E50CC398400302B9B670
:103930009002FFE0C39416507DE50CC333F8E433E6
:10394000F9E50E28FEE50F39FF851A82851B83AC49
:1039500082AD838E828F8312BD2E1228C48A128B71
:1039600013AC12AD13EC4D7005750D018043E4F5F9
:1039700012F51378121215F37512E8751302781206
:103980001215F37512E975130278121215F3740605
:103990001213D412160A7916850A82850B8312BD7A
:1039A0002E1229E4740812139FE9F50D700302B872
:1039B000D112BF8F80107CFF7D02850A82850B8328
:1039C00012BD2E122642A90D740202BE8AE994008D
:1039D000C365D03322EA28F8E43400F9E822E0F5A0
:1039E0001275130078122274EA1213E074FC121399
:1039F000898A0E8B0F8C148D15EA2405F50CEB12B9
:103A0000BF83750A00750B00E50C2402F512E50D65
:103A10003400F51374021213D48582108583117853
:103A2000101215F3850C82850D83A3A3A3A312C4E2
:103A3000CF1215F3E50C2405F510E50D3400F51152
:103A400078101215F385128285138312BF8912BD77
:103A5000281228BE740612139F8A108B11AE10AF65
:103A600011E50E2402F510E50F3400F511804088B1
:103A700082898374FFF0050A12B88674FFF0050A84
:103A80009002E8E0F50E750F00780E1215F37CE950
:103A90007D02850A0E7401250EFA74033400FB12B0
:103AA000315E740212139F9002E8E0250AF50AEED7
:103AB0004F60718E828F83A3A3A3E0F98510828566
:103AC000118312BD2E1228ACE9F50BEE240412B4BA
:103AD000B1E97044E4F516F51778161215F375166A
:103AE000E875170278161215F37516E9751702783E
:103AF000161215F374081213D412160A7911EEFC7B
:103B0000EFFD85108285118312BD2E1229E4740801
:103B100012139FE9F50B6027850E82850F8312BC77
:103B20000F12BF9CE50A700302BBF512BC19851089
:103B30008285118312BD2E122648790002BC0A85A7
:103B40000A82AA82EA9002E87009E0240490030045
:103B5000F08022E0F8900300E0F516E82404FCE48D
:103B60003400FDEC65167001ED70C012B9D59412E9
:103B700012B9CD50B6850E82850F83E0C0E0740186
:103B80002A12B88DD0E0F0050A850E82850F83A336
:103B9000E0C0E012B886D0E012BC2B85820E85838F
:103BA0000F780E1215F374041213D412160A85122C
:103BB0008285138312C7F61228CA740412139F8ACF
:103BC0000E8B0FAE0EAF0F850A0E7401250EF87422
:103BD000033400F9EE4F700302BA6F851A82851B19
:103BE00083E08882898312BC2BA3E0C0E012B886F0
:103BF000D0E002BA7DE50B7003750B0A850C828557
:103C00000D8312BC0F12BF9CA90B740402B87E1264
:103C1000C7E585148285158322900300E0F5F0E561
:103C20000A849002FFF07CFF7D0222F0050A851ACB
:103C300082851B832274EC1213E074FE1213898AAE
:103C40000A8B0B8C108D11EA2405FEEB3400FF85E6
:103C50001A82851B83AC82AD838E828F8312BD2E28
:103C60001228C48A0C8B0DEE241812B4B1EA450D4B
:103C7000700302BCFF12BE715032851A82851B830D
:103C800012BD2E1229D88A128B13EA4513606B7964
:103C900012AC0CAD0D850A82850B8312BD2E8512E8
:103CA000828513831213DEE9F50C7058E4F50CF5E8
:103CB0000D780C1215F38E828F83A3A3E0F50C7898
:103CC0000C1215F3EE240312BF80780C1215F38E3C
:103CD000828F8312BD381229EA740612139FE9F508
:103CE0000C7021850E82850F83E0701F850A828506
:103CF0000B8312BD2E12264E8011750C0E80097595
:103D00000C018004E50C600312BF8F850E82850FC5
:103D100083E0600479008002A90C740212139F7F73
:103D20000C0214B27CFF7D02850C82850D8312BDCE
:103D30003222E0FAA3E0FB22E0FCA3E0FD850A8248
:103D4000850B8312BD322274EE1213E074FE12133F
:103D5000898A0A8B0B8C0E8D0FEA2405FEEB34004A
:103D6000FF751000851A82851B83AC82AD838E821D
:103D70008F8312BD2E1228C48A0C8B0DEA450D705C
:103D80000302BE5D12BE715035851A82851B8312F7
:103D9000BD2E1229D88A108B11EA4511605E791266
:103DA000AC0CAD0D850A82850B8312BD2E85108269
:103DB0008511831213DEE9F510600302BE60850AE7
:103DC00082850B8312C077AA0CFB1229CC8A128B36
:103DD00013A812A913E849701E7AFF7BFF1229CCA1
:103DE0008A128B13A812A913E849606C8882898310
:103DF000E50CF0A3E50DF0750C00800775100E8042
:103E00005F050C9002E5E0FAE50CC39A504AE50C18
:103E100075F017A4FAABF088828983A3A3E02AFA8D
:103E2000A3E03BFB8A828B8312BF89EC4D70D27575
:103E30000C17750D00780C1215F3EEFCEFFD123126
:103E40005E740212139FEEFCEFFD850A82850B83E0
:103E500012BD2E12265480147510098003751001AE
:103E600012C7DD850E82850F8312BF9CA91002B98F
:103E7000C8E50A2402F50AE50B3400F50B8A828BAB
:103E800083A3A3A3E0A2E522740412139F7F0A0276
:103E900014B274EC1213E08C128D13EA2405F50EA3
:103EA000EB12B4B4751100EA2402F50CEB12BF83D7
:103EB000850C82F58312BD2E1229CC8A0A8B0BEA5F
:103EC000450B700302BF757510008071850E8285E9
:103ED0000F83E06401704F8E828F83A3A312160AB2
:103EE0008E828F83A3A3A3A3E0F514751500781425
:103EF0001215F3EE2405F514EF3400F515781412BD
:103F000015F312BD281229EA740612139FE9F51160
:103F10006014850E82850F83E4F012C7DD8512825E
:103F200085138312BF9C7C177D007900EEFAEFFBAE
:103F30001231768E828F83E4F0A3F005109002E5B3
:103F4000E0F8E510C398501EE51075F017A4F8A925
:103F5000F0850A82850B83A3A312C96A12BF89EC7C
:103F60004D600302BECC850A82850B8374FFF0A3EB
:103F7000F0E511700612BD2812265AA91102BD1FC4
:103F8000F50CEF3400F50D22A3E0FCA3E0FD228E3A
:103F9000828F8312C7E5851082851183E8F0A3E93B
:103FA000F022C082C0839002E1E06A7003A3E06B5C
:103FB00070067AE17B0280047A007B0002B28FC037
:103FC00082C08378008C828D83E06A7003A3E06BEB
:103FD0007010E875F003A4F8A9F0EC28FAED39FBAD
:103FE0008015088C828D83A3A3A3E06A7003A3E0ED
:103FF0006B60DF7A007B0002B28F74F61213E0125E
:1040000029968A828B83E582458370067A007B003D
:104010008007A3A3A3A312BD2E02C68E74F21213AF
:10402000E0E9FE740E1213D412C07774101213D488
:1040300012C4EF8C828D83E064027036A312C7EB4A
:10404000F50EA3E0F9A80E74026870037429697074
:1040500021750E02750F00780E1215F3780A1215ED
:10406000F3780C1215F3EEF9122A0E740612139F50
:104070008002790102C712E0F50CA3E0F50D22746D
:10408000E81213E074FB121389E9851A82851B83F9
:10409000F08A188B19ECFEEDFF751200741D1213D7
:1040A000D412C7E1741D1213D412BF9C8E828F8369
:1040B000A3A3A3E0A2E4502D741D1213D412BD2EAD
:1040C0001229D88A828B83E5824583700302C4C09B
:1040D000790AEEFCEFFDAA18AB191213DEE9F5120E
:1040E000600302C4C3741F1213D412C4EF742112EC
:1040F00013D412C07774231213D4E0F510A3E0F5A3
:10410000118E828F83E06402600302C46EA312C723
:10411000E1850A82850B83A3858214858315EE24AD
:104120000612B4B188828983E0FAA3E0F9EA240098
:10413000F516E439F517781612167D0100002801EE
:104140002863C10700022828C2032895C100295FFF
:10415000C301298AC302292BC303295FC304290988
:10416000C46EC4E5104511600302C469850E8285E2
:104170000F8312C4E4FAE9FB8A828B83E0850C8208
:10418000850D8312C51A1215F38A828B83A3E0FC76
:10419000A3E002C3F3E5104511600302C469850C76
:1041A00082850D837401F012C4F7850A82850B8322
:1041B000F07C007D008E828F83A3A3A3A3E0240163
:1041C000FAA3E03400FB1228C4EA4B60418A828BD8
:1041D00083E02402F8850C82850D83E028F0EA2430
:1041E00004F8EB3400F988828983E0851482851510
:1041F0008312C52C12C51A1215F38A828B8312BF43
:1042000088E50A2403FAE50B3400FB02C3F8850CA9
:1042100082850D83E02404F07C047D007900AA14DB
:10422000AB1512317602C4C3E5104511600302C418
:104230006912C4F7FEA3E0FF850C82850D83740428
:10424000F0EE850A82850B83F0EF85148285158355
:10425000F074031213D4AC82AD83EEFAEFFB122894
:10426000C48A0E8B0FEA450F700302C30C8A828B3F
:1042700083A3A312B13A74011213D48582108583EB
:104280001178101215F374051213D412160A7CFF5C
:104290007DFF1228CA740412139F8B11EA45117016
:1042A00033850E82850F8312C4CF1215F3850E82DB
:1042B000850F83A312160A7C027D007A397B841253
:1042C00026F6740412139FE9700A74011213D47451
:1042D000FFF0A3F08E828F83E064027039750E02C6
:1042E000750F00780E1215F38E828F8312BF88E54A
:1042F0000A2404FAE50B3400FB12315E7402121337
:104300009F850C82850D83E02402800974011213BD
:10431000D4EEF0A3EFF074011213D412C4E0F074E1
:10432000011213D4A312C4D802C463E5104511606E
:104330000302C469850E82850F8312BF89AA18AB58
:1043400019122A02850C82850D837402F0EA850A0F
:1043500082850B83F0851482851583EB02C466E5A4
:10436000104511600302C46912C4F7F8A3E0F9858F
:104370000C82850D837402F0E8850A82850B83F038
:10438000E985148285158302C466850E82850F83B4
:1043900012BD2E123158EAFC8C82A882C39510E41B
:1043A0009511405FE865107002E51170047C008093
:1043B00022851A82851B83E0FAE5102AFAE511347A
:1043C00000FBC3EA98EB94005003E08005E510CCB5
:1043D000C39CFCEC850C82850D83F08C0C750D0064
:1043E000780C1215F3850E82850F83E02510FCA34F
:1043F000E03511FDAA0AAB0B12315E740212139F55
:1044000002C4C375120702C4C3E5104511705A8572
:104410000E82850F8312C7E1850C82850D83740798
:1044200012B14612C4D812B146A3E0851482851594
:1044300083F0E82402FAE93400FB8A828B8312C4F9
:10444000D812C50712C4E0A312C51012C4E9F0E8DF
:104450002405F8E93400F98882898312C4E9A3129B
:10446000C52CA3A3A3A3F0805A75120B8055741D0D
:104470001213D412BD2E1229968A828B83E58245AF
:1044800083603D12C7E1880E890FE8450F603178DF
:10449000101215F3780C1215F3780A1215F374063E
:1044A0001213D4E0F9EEFCEFFDAA18AB19850E82C9
:1044B000850F831213DE740612139FE9F512800331
:1044C00075120EA912740512139F7F100214B2E028
:1044D000F510751100781022E0850A82850B832281
:1044E00012C5362212C7E5E82212C536A3A322E080
:1044F000F50AA3E0F50B22850E82850F83E0F8A371
:10450000E0F5838882E022A3A3F08A828B83A32232
:10451000F088828983A3A3A3A322F08A828B8312CB
:10452000C52322E0F50C750D00780C22F0888289F5
:1045300083A312C53622E0850A82850B83A3A322BA
:1045400074EE1213E074FE1213898A0C8B0DECFAD0
:10455000EDFB74141213D4E0F512A3E0F5137416F6
:104560001213D4E0FE74181213D4E0F510A3E0F592
:1045700011851A82851B83AC82AD831228C48A0EF2
:104580008B0FEA450F6049851A82851B8312BD2E69
:104590001229968A828B83E5824583602FA3A3121A
:1045A000C4EFE50A450B602478101215F378121257
:1045B00015F3EEF9AC0EAD0FAA0CAB0D850A828592
:1045C0000B831213DE740412139F8006790E80028F
:1045D000790102B9C874F61213E074FE12138974DB
:1045E0000C1213D412C4E4851A82851B83F0740163
:1045F0001213D4E9F0E4F50AF50B780A1215F375F5
:104600000A02780A1215F374041213D485820A85FB
:10461000830B780A1215F31229EA740612139F7499
:104620000212139F806874F71213E0EAFEEBFF8911
:104630000A7C187D03122A02EA5402600BA90AEED2
:10464000FAEFFB1228B88002790102B04274F61228
:1046500013E074FF6A700374FF6B70168C828D8395
:1046600012C693E4F08C828D83A3A3A312C693A3F6
:1046700080181229D28A0A8B0BA80AA90BE8496074
:104680000D8882898374FF12B144A3A3E4F07F02F2
:104690000214B274FFF0A3F08C828D83A3A3227462
:1046A000F61213E01229D28A828B83E58245836059
:1046B00006A3A3E0FA80027A007B0080D174F21294
:1046C00013E08A0A8B0BECFEEDFF740E1213D4E09C
:1046D000F50C1229D28A0E8B0FA80EA90FE849708B
:1046E00026EEFCEFFD7AFF7BFF1229D28A0E8B0F9C
:1046F000A80EA90FE8497004791180168882898371
:10470000E50AF0A3E50BF088828983A3A3E50CF00A
:1047100079007F060214B274EE1213E0EAFEEBFF9A
:104720008C0A8D0B890E74141213D412C7E17416FF
:104730001213D412BD2E750F00E849600302C7D5CD
:104740007402650E600302C7D074121213D412C72C
:10475000EBFCA3E0F9EC2400F510E439F511EAF4E0
:10476000F8EBF4F9EC58F8E51159F9E849705CE513
:104770000A2406F8ED3400F9880C890D8882F58347
:1047800012C7F6122A028A128B13E5106512700402
:10479000E5116513604278101215F3850C82850DC2
:1047A0008312C7F6122A08740212139FE9F50F70DC
:1047B0002778101215F3850A82850B83A3A312C7ED
:1047C000F4122A20740212139F800D750F80800846
:1047D000750F0D8003750F0BA90F02BE8D8E828F92
:1047E0008312C7E522E0F8A3E0F92212C7E5888228
:1047F0008983E022A3A3E0FCA3E0FDEEFAEFFB2215
:1048000074E81213E074E7121389851A82851B83FA
:10481000EAF0A3EBF08C188D198910750A00750B5E
:104820000074311213D4E0F514A3E0F515743312BB
:1048300013D4E0F516A3E0F51774351213D4E0F5A0
:1048400011E50B75F003A4F8A9F0851A82851B8386
:1048500012C96AE0F47003A3E0F4700302C94DEEDC
:104860002402F50EEF12C960E0700302C94D8518ED
:104870000C85190D780C1215F3AC16AD17AA14ABF4
:104880001512298A740212139F8A0C8B0DEA450DAA
:10489000700302C94DE4F512F51378121215F37482
:1048A000061213D485821285831378121215F374BD
:1048B000091213D485821285831378121215F38599
:1048C0001482851583A3A3A3A312160A7914AC0C32
:1048D000AD0D8E828F8312BD2E1229E4740812133F
:1048E0009FE97069850C82850D83A3A3A3A312C7DA
:1048F000E174021213D412BF9C850E82850F83E0EF
:10490000A2E05018A91074021213D4AC82AD838EA9
:10491000828F8312BD2E1228DCE9420A850E828521
:104920000F83E0A2E15026E511F50C780C1215F783
:10493000A91074031213D4AC82AD838E828F8312BC
:10494000BD2E1228D6740112139FE9420A050BE509
:104950000BC39402500302C841A90A741902C4C7C8
:104960003400F50F850E82F58322E028FEA3E0399E
:10497000FF8E828F832274F21213E0EAFEEBFF892E
:104980000D7401650D600E7402650D706A79011277
:104990002BE2E97062EEFAEFFB1229CC8A0A8B0B4C
:1049A000EA450B6047750C00800B7C177D00790091
:1049B000123176050C9002E5E0F8E50CC398502121
:1049C000E50C75F017A4F8A9F0850A82850B83A37E
:1049D000A3E028FAA3E039FB8A828B8312B2967097
:1049E000C9850A82850B8374FFF0A3F07C187D03D0
:1049F000EEFAEFFB1229FC02C71274F21213E08ADE
:104A00000A8B0BECFEEDFF740E1213D412C07790DC
:104A10000AC8E0F4603D7A097B00123182EA4B60FB
:104A2000328A828B8374B1F0A3E412C509A312C544
:104A300007A3E50AF0A3E50B12CA56EEF0A3EF12A6
:104A4000CA56A3A3E50CF0A3E50DF0900AC8E0F95F
:104A500012318E02C712F08A828B83A3A3A3A3A371
:104A600022C082C0839061907404F0A37448F0A3C4
:104A70007402F09061807440F09061BC7403F09017
:104A800061877419F0906265741BF090619C740DDD
:104A9000F090619A7433F0A37455F09061A0743A69
:104AA000F090053EE064017009C2919003A574671F
:104AB00080059003A57461F09037CEE493906186F1
:104AC000F09037D0E493F46027E493540FF89061AA
